{
  "contractName": "BullionIssue",
  "abi": [
    {
      "inputs": [
        {
          "internalType": "address",
          "name": "_proxyRegistryAddress",
          "type": "address"
        }
      ],
      "payable": false,
      "stateMutability": "nonpayable",
      "type": "constructor"
    },
    {
      "anonymous": false,
      "inputs": [
        {
          "indexed": true,
          "internalType": "address",
          "name": "previousOwner",
          "type": "address"
        },
        {
          "indexed": true,
          "internalType": "address",
          "name": "newOwner",
          "type": "address"
        }
      ],
      "name": "OwnershipTransferred",
      "type": "event"
    },
    {
      "constant": true,
      "inputs": [],
      "name": "isOwner",
      "outputs": [
        {
          "internalType": "bool",
          "name": "",
          "type": "bool"
        }
      ],
      "payable": false,
      "stateMutability": "view",
      "type": "function"
    },
    {
      "constant": true,
      "inputs": [],
      "name": "item",
      "outputs": [
        {
          "internalType": "contract BullionItem",
          "name": "",
          "type": "address"
        }
      ],
      "payable": false,
      "stateMutability": "view",
      "type": "function"
    },
    {
      "constant": true,
      "inputs": [],
      "name": "owner",
      "outputs": [
        {
          "internalType": "address",
          "name": "",
          "type": "address"
        }
      ],
      "payable": false,
      "stateMutability": "view",
      "type": "function"
    },
    {
      "constant": false,
      "inputs": [],
      "name": "renounceOwnership",
      "outputs": [],
      "payable": false,
      "stateMutability": "nonpayable",
      "type": "function"
    },
    {
      "constant": false,
      "inputs": [
        {
          "internalType": "address",
          "name": "newOwner",
          "type": "address"
        }
      ],
      "name": "transferOwnership",
      "outputs": [],
      "payable": false,
      "stateMutability": "nonpayable",
      "type": "function"
    },
    {
      "constant": false,
      "inputs": [
        {
          "internalType": "string",
          "name": "_name",
          "type": "string"
        },
        {
          "internalType": "string",
          "name": "_tokenSymbol",
          "type": "string"
        }
      ],
      "name": "createToken",
      "outputs": [],
      "payable": false,
      "stateMutability": "nonpayable",
      "type": "function"
    },
    {
      "constant": true,
      "inputs": [],
      "name": "getSymbol",
      "outputs": [
        {
          "internalType": "string",
          "name": "",
          "type": "string"
        }
      ],
      "payable": false,
      "stateMutability": "view",
      "type": "function"
    },
    {
      "constant": true,
      "inputs": [],
      "name": "getName",
      "outputs": [
        {
          "internalType": "string",
          "name": "",
          "type": "string"
        }
      ],
      "payable": false,
      "stateMutability": "view",
      "type": "function"
    }
  ],
  "bytecode": "0x608060405234801561001057600080fd5b5060405161484c38038061484c8339818101604052602081101561003357600080fd5b8101908080519060200190929190505050600061005461013960201b60201c565b9050806000806101000a81548173ffffffffffffffffffffffffffffffffffffffff021916908373ffffffffffffffffffffffffffffffffffffffff1602179055508073ffffffffffffffffffffffffffffffffffffffff16600073ffffffffffffffffffffffffffffffffffffffff167f8be0079c531659141344cd1fd0a4f28419497f9722a3daafe3b4186f6b6457e060405160405180910390a35080600160006101000a81548173ffffffffffffffffffffffffffffffffffffffff021916908373ffffffffffffffffffffffffffffffffffffffff16021790555050610141565b600033905090565b6146fc806101506000396000f3fe60806040523480156200001157600080fd5b5060043610620000945760003560e01c80638da5cb5b11620000635780638da5cb5b14620003105780638f32d59b146200035c578063f2a4a82e1462000380578063f2fde38b14620003cc5762000094565b806315070401146200009957806317d7de7c14620001215780632f2f2d5614620001a9578063715018a61462000304575b600080fd5b620000a362000413565b6040518080602001828103825283818151815260200191508051906020019080838360005b83811015620000e5578082015181840152602081019050620000c8565b50505050905090810190601f168015620001135780820380516001836020036101000a031916815260200191505b509250505060405180910390f35b6200012b62000584565b6040518080602001828103825283818151815260200191508051906020019080838360005b838110156200016d57808201518184015260208101905062000150565b50505050905090810190601f1680156200019b5780820380516001836020036101000a031916815260200191505b509250505060405180910390f35b6200030260048036036040811015620001c157600080fd5b8101908080359060200190640100000000811115620001df57600080fd5b820183602082011115620001f257600080fd5b803590602001918460018302840111640100000000831117156200021557600080fd5b91908080601f016020809104026020016040519081016040528093929190818152602001838380828437600081840152601f19601f820116905080830192505050505050509192919290803590602001906401000000008111156200027957600080fd5b8201836020820111156200028c57600080fd5b80359060200191846001830284011164010000000083111715620002af57600080fd5b91908080601f016020809104026020016040519081016040528093929190818152602001838380828437600081840152601f19601f820116905080830192505050505050509192919290505050620006f5565b005b6200030e6200091b565b005b6200031a62000a57565b604051808273ffffffffffffffffffffffffffffffffffffffff1673ffffffffffffffffffffffffffffffffffffffff16815260200191505060405180910390f35b6200036662000a80565b604051808215151515815260200191505060405180910390f35b6200038a62000ae0565b604051808273ffffffffffffffffffffffffffffffffffffffff1673ffffffffffffffffffffffffffffffffffffffff16815260200191505060405180910390f35b6200041160048036036020811015620003e457600080fd5b81019080803573ffffffffffffffffffffffffffffffffffffffff16906020019092919050505062000b06565b005b6060600260009054906101000a900473ffffffffffffffffffffffffffffffffffffffff1673ffffffffffffffffffffffffffffffffffffffff166395d89b416040518163ffffffff1660e01b815260040160006040518083038186803b1580156200047e57600080fd5b505afa15801562000493573d6000803e3d6000fd5b505050506040513d6000823e3d601f19601f820116820180604052506020811015620004be57600080fd5b8101908080516040519392919084640100000000821115620004df57600080fd5b83820191506020820185811115620004f657600080fd5b82518660018202830111640100000000821117156200051457600080fd5b8083526020830192505050908051906020019080838360005b838110156200054a5780820151818401526020810190506200052d565b50505050905090810190601f168015620005785780820380516001836020036101000a031916815260200191505b50604052505050905090565b6060600260009054906101000a900473ffffffffffffffffffffffffffffffffffffffff1673ffffffffffffffffffffffffffffffffffffffff166306fdde036040518163ffffffff1660e01b815260040160006040518083038186803b158015620005ef57600080fd5b505afa15801562000604573d6000803e3d6000fd5b505050506040513d6000823e3d601f19601f8201168201806040525060208110156200062f57600080fd5b81019080805160405193929190846401000000008211156200065057600080fd5b838201915060208201858111156200066757600080fd5b82518660018202830111640100000000821117156200068557600080fd5b8083526020830192505050908051906020019080838360005b83811015620006bb5780820151818401526020810190506200069e565b50505050905090810190601f168015620006e95780820380516001836020036101000a031916815260200191505b50604052505050905090565b620006ff62000a80565b62000772576040517f08c379a00000000000000000000000000000000000000000000000000000000081526004018080602001828103825260208152602001807f4f776e61626c653a2063616c6c6572206973206e6f7420746865206f776e657281525060200191505060405180910390fd5b600160009054906101000a900473ffffffffffffffffffffffffffffffffffffffff168282604051620007a59062000cdf565b808473ffffffffffffffffffffffffffffffffffffffff1673ffffffffffffffffffffffffffffffffffffffff1681526020018060200180602001838103835285818151815260200191508051906020019080838360005b838110156200081a578082015181840152602081019050620007fd565b50505050905090810190601f168015620008485780820380516001836020036101000a031916815260200191505b50838103825284818151815260200191508051906020019080838360005b838110156200088357808201518184015260208101905062000866565b50505050905090810190601f168015620008b15780820380516001836020036101000a031916815260200191505b5095505050505050604051809103906000f080158015620008d6573d6000803e3d6000fd5b50600260006101000a81548173ffffffffffffffffffffffffffffffffffffffff021916908373ffffffffffffffffffffffffffffffffffffffff1602179055505050565b6200092562000a80565b62000998576040517f08c379a00000000000000000000000000000000000000000000000000000000081526004018080602001828103825260208152602001807f4f776e61626c653a2063616c6c6572206973206e6f7420746865206f776e657281525060200191505060405180910390fd5b600073ffffffffffffffffffffffffffffffffffffffff166000809054906101000a900473ffffffffffffffffffffffffffffffffffffffff1673ffffffffffffffffffffffffffffffffffffffff167f8be0079c531659141344cd1fd0a4f28419497f9722a3daafe3b4186f6b6457e060405160405180910390a360008060006101000a81548173ffffffffffffffffffffffffffffffffffffffff021916908373ffffffffffffffffffffffffffffffffffffffff160217905550565b60008060009054906101000a900473ffffffffffffffffffffffffffffffffffffffff16905090565b60008060009054906101000a900473ffffffffffffffffffffffffffffffffffffffff1673ffffffffffffffffffffffffffffffffffffffff1662000ac462000b91565b73ffffffffffffffffffffffffffffffffffffffff1614905090565b600260009054906101000a900473ffffffffffffffffffffffffffffffffffffffff1681565b62000b1062000a80565b62000b83576040517f08c379a00000000000000000000000000000000000000000000000000000000081526004018080602001828103825260208152602001807f4f776e61626c653a2063616c6c6572206973206e6f7420746865206f776e657281525060200191505060405180910390fd5b62000b8e8162000b99565b50565b600033905090565b600073ffffffffffffffffffffffffffffffffffffffff168173ffffffffffffffffffffffffffffffffffffffff16141562000c21576040517f08c379a0000000000000000000000000000000000000000000000000000000008152600401808060200182810382526026815260200180620046a26026913960400191505060405180910390fd5b8073ffffffffffffffffffffffffffffffffffffffff166000809054906101000a900473ffffffffffffffffffffffffffffffffffffffff1673ffffffffffffffffffffffffffffffffffffffff167f8be0079c531659141344cd1fd0a4f28419497f9722a3daafe3b4186f6b6457e060405160405180910390a3806000806101000a81548173ffffffffffffffffffffffffffffffffffffffff021916908373ffffffffffffffffffffffffffffffffffffffff16021790555050565b6139b48062000cee8339019056fe60806040526000600f553480156200001657600080fd5b50604051620039b4380380620039b4833981810160405260608110156200003c57600080fd5b8101908080519060200190929190805160405193929190846401000000008211156200006757600080fd5b838201915060208201858111156200007e57600080fd5b82518660018202830111640100000000821117156200009c57600080fd5b8083526020830192505050908051906020019080838360005b83811015620000d2578082015181840152602081019050620000b5565b50505050905090810190601f168015620001005780820380516001836020036101000a031916815260200191505b50604052602001805160405193929190846401000000008211156200012457600080fd5b838201915060208201858111156200013b57600080fd5b82518660018202830111640100000000821117156200015957600080fd5b8083526020830192505050908051906020019080838360005b838110156200018f57808201518184015260208101905062000172565b50505050905090810190601f168015620001bd5780820380516001836020036101000a031916815260200191505b5060405250505081818482828181620001e36301ffc9a760e01b620003a060201b60201c565b620001fb6380ac58cd60e01b620003a060201b60201c565b6200021363780e9d6360e01b620003a060201b60201c565b81600990805190602001906200022b929190620004b1565b5080600a908051906020019062000244929190620004b1565b506200025d635b5e139f60e01b620003a060201b60201c565b50505050600062000273620004a960201b60201c565b905080600d60006101000a81548173ffffffffffffffffffffffffffffffffffffffff021916908373ffffffffffffffffffffffffffffffffffffffff1602179055508073ffffffffffffffffffffffffffffffffffffffff16600073ffffffffffffffffffffffffffffffffffffffff167f8be0079c531659141344cd1fd0a4f28419497f9722a3daafe3b4186f6b6457e060405160405180910390a35080600e60006101000a81548173ffffffffffffffffffffffffffffffffffffffff021916908373ffffffffffffffffffffffffffffffffffffffff16021790555050505082601060006101000a81548173ffffffffffffffffffffffffffffffffffffffff021916908373ffffffffffffffffffffffffffffffffffffffff16021790555050505062000560565b63ffffffff60e01b817bffffffffffffffffffffffffffffffffffffffffffffffffffffffff191614156200043d576040517f08c379a000000000000000000000000000000000000000000000000000000000815260040180806020018281038252601c8152602001807f4552433136353a20696e76616c696420696e746572666163652069640000000081525060200191505060405180910390fd5b6001600080837bffffffffffffffffffffffffffffffffffffffffffffffffffffffff19167bffffffffffffffffffffffffffffffffffffffffffffffffffffffff1916815260200190815260200160002060006101000a81548160ff02191690831515021790555050565b600033905090565b828054600181600116156101000203166002900490600052602060002090601f016020900481019282601f10620004f457805160ff191683800117855562000525565b8280016001018555821562000525579182015b828111156200052457825182559160200191906001019062000507565b5b50905062000534919062000538565b5090565b6200055d91905b80821115620005595760008160009055506001016200053f565b5090565b90565b61344480620005706000396000f3fe608060405234801561001057600080fd5b50600436106101735760003560e01c806370a08231116100de578063a22cb46511610097578063cd7c032611610071578063cd7c032614610a0b578063d547cfb714610a55578063e985e9c514610ad8578063f2fde38b14610b5457610173565b8063a22cb4651461080f578063b88d4fde1461085f578063c87b56dd1461096457610173565b806370a0823114610666578063715018a6146106be578063755edd17146106c85780638da5cb5b146107205780638f32d59b1461076a57806395d89b411461078c57610173565b80632f745c59116101305780632f745c59146103a857806331f1f3c31461040a57806342842e0e146104c55780634f6ccce7146105335780636352211e146105755780636c0360eb146105e357610173565b806301ffc9a71461017857806306fdde03146101dd578063081812fc14610260578063095ea7b3146102ce57806318160ddd1461031c57806323b872dd1461033a575b600080fd5b6101c36004803603602081101561018e57600080fd5b8101908080357bffffffffffffffffffffffffffffffffffffffffffffffffffffffff19169060200190929190505050610b98565b604051808215151515815260200191505060405180910390f35b6101e5610bff565b6040518080602001828103825283818151815260200191508051906020019080838360005b8381101561022557808201518184015260208101905061020a565b50505050905090810190601f1680156102525780820380516001836020036101000a031916815260200191505b509250505060405180910390f35b61028c6004803603602081101561027657600080fd5b8101908080359060200190929190505050610ca1565b604051808273ffffffffffffffffffffffffffffffffffffffff1673ffffffffffffffffffffffffffffffffffffffff16815260200191505060405180910390f35b61031a600480360360408110156102e457600080fd5b81019080803573ffffffffffffffffffffffffffffffffffffffff16906020019092919080359060200190929190505050610d3c565b005b610324610f23565b6040518082815260200191505060405180910390f35b6103a66004803603606081101561035057600080fd5b81019080803573ffffffffffffffffffffffffffffffffffffffff169060200190929190803573ffffffffffffffffffffffffffffffffffffffff16906020019092919080359060200190929190505050610f30565b005b6103f4600480360360408110156103be57600080fd5b81019080803573ffffffffffffffffffffffffffffffffffffffff16906020019092919080359060200190929190505050610fa6565b6040518082815260200191505060405180910390f35b6104c36004803603602081101561042057600080fd5b810190808035906020019064010000000081111561043d57600080fd5b82018360208201111561044f57600080fd5b8035906020019184600183028401116401000000008311171561047157600080fd5b91908080601f016020809104026020016040519081016040528093929190818152602001838380828437600081840152601f19601f820116905080830192505050505050509192919290505050611065565b005b610531600480360360608110156104db57600080fd5b81019080803573ffffffffffffffffffffffffffffffffffffffff169060200190929190803573ffffffffffffffffffffffffffffffffffffffff16906020019092919080359060200190929190505050611080565b005b61055f6004803603602081101561054957600080fd5b81019080803590602001909291905050506110a0565b6040518082815260200191505060405180910390f35b6105a16004803603602081101561058b57600080fd5b8101908080359060200190929190505050611120565b604051808273ffffffffffffffffffffffffffffffffffffffff1673ffffffffffffffffffffffffffffffffffffffff16815260200191505060405180910390f35b6105eb6111e8565b6040518080602001828103825283818151815260200191508051906020019080838360005b8381101561062b578082015181840152602081019050610610565b50505050905090810190601f1680156106585780820380516001836020036101000a031916815260200191505b509250505060405180910390f35b6106a86004803603602081101561067c57600080fd5b81019080803573ffffffffffffffffffffffffffffffffffffffff16906020019092919050505061128a565b6040518082815260200191505060405180910390f35b6106c661135f565b005b61070a600480360360208110156106de57600080fd5b81019080803573ffffffffffffffffffffffffffffffffffffffff16906020019092919050505061149a565b6040518082815260200191505060405180910390f35b61072861153d565b604051808273ffffffffffffffffffffffffffffffffffffffff1673ffffffffffffffffffffffffffffffffffffffff16815260200191505060405180910390f35b610772611567565b604051808215151515815260200191505060405180910390f35b6107946115c6565b6040518080602001828103825283818151815260200191508051906020019080838360005b838110156107d45780820151818401526020810190506107b9565b50505050905090810190601f1680156108015780820380516001836020036101000a031916815260200191505b509250505060405180910390f35b61085d6004803603604081101561082557600080fd5b81019080803573ffffffffffffffffffffffffffffffffffffffff169060200190929190803515159060200190929190505050611668565b005b6109626004803603608081101561087557600080fd5b81019080803573ffffffffffffffffffffffffffffffffffffffff169060200190929190803573ffffffffffffffffffffffffffffffffffffffff16906020019092919080359060200190929190803590602001906401000000008111156108dc57600080fd5b8201836020820111156108ee57600080fd5b8035906020019184600183028401116401000000008311171561091057600080fd5b91908080601f016020809104026020016040519081016040528093929190818152602001838380828437600081840152601f19601f820116905080830192505050505050509192919290505050611820565b005b6109906004803603602081101561097a57600080fd5b8101908080359060200190929190505050611898565b6040518080602001828103825283818151815260200191508051906020019080838360005b838110156109d05780820151818401526020810190506109b5565b50505050905090810190601f1680156109fd5780820380516001836020036101000a031916815260200191505b509250505060405180910390f35b610a136118ba565b604051808273ffffffffffffffffffffffffffffffffffffffff1673ffffffffffffffffffffffffffffffffffffffff16815260200191505060405180910390f35b610a5d6118e0565b6040518080602001828103825283818151815260200191508051906020019080838360005b83811015610a9d578082015181840152602081019050610a82565b50505050905090810190601f168015610aca5780820380516001836020036101000a031916815260200191505b509250505060405180910390f35b610b3a60048036036040811015610aee57600080fd5b81019080803573ffffffffffffffffffffffffffffffffffffffff169060200190929190803573ffffffffffffffffffffffffffffffffffffffff1690602001909291905050506118f7565b604051808215151515815260200191505060405180910390f35b610b9660048036036020811015610b6a57600080fd5b81019080803573ffffffffffffffffffffffffffffffffffffffff169060200190929190505050611a28565b005b6000806000837bffffffffffffffffffffffffffffffffffffffffffffffffffffffff19167bffffffffffffffffffffffffffffffffffffffffffffffffffffffff1916815260200190815260200160002060009054906101000a900460ff169050919050565b606060098054600181600116156101000203166002900480601f016020809104026020016040519081016040528092919081815260200182805460018160011615610100020316600290048015610c975780601f10610c6c57610100808354040283529160200191610c97565b820191906000526020600020905b815481529060010190602001808311610c7a57829003601f168201915b5050505050905090565b6000610cac82611aae565b610d01576040517f08c379a000000000000000000000000000000000000000000000000000000000815260040180806020018281038252602c815260200180613311602c913960400191505060405180910390fd5b6002600083815260200190815260200160002060009054906101000a900473ffffffffffffffffffffffffffffffffffffffff169050919050565b6000610d4782611120565b90508073ffffffffffffffffffffffffffffffffffffffff168373ffffffffffffffffffffffffffffffffffffffff161415610dce576040517f08c379a00000000000000000000000000000000000000000000000000000000081526004018080602001828103825260218152602001806133926021913960400191505060405180910390fd5b8073ffffffffffffffffffffffffffffffffffffffff16610ded611b20565b73ffffffffffffffffffffffffffffffffffffffff161480610e1c5750610e1b81610e16611b20565b6118f7565b5b610e71576040517f08c379a00000000000000000000000000000000000000000000000000000000081526004018080602001828103825260388152602001806132866038913960400191505060405180910390fd5b826002600084815260200190815260200160002060006101000a81548173ffffffffffffffffffffffffffffffffffffffff021916908373ffffffffffffffffffffffffffffffffffffffff160217905550818373ffffffffffffffffffffffffffffffffffffffff168273ffffffffffffffffffffffffffffffffffffffff167f8c5be1e5ebec7d5bd14f71427d1e84f3dd0314c0f7b2291e5b200ac8c7c3b92560405160405180910390a4505050565b6000600780549050905090565b610f41610f3b611b20565b82611b28565b610f96576040517f08c379a00000000000000000000000000000000000000000000000000000000081526004018080602001828103825260318152602001806133b36031913960400191505060405180910390fd5b610fa1838383611c1c565b505050565b6000610fb18361128a565b8210611008576040517f08c379a000000000000000000000000000000000000000000000000000000000815260040180806020018281038252602b8152602001806131b3602b913960400191505060405180910390fd5b600560008473ffffffffffffffffffffffffffffffffffffffff1673ffffffffffffffffffffffffffffffffffffffff168152602001908152602001600020828154811061105257fe5b9060005260206000200154905092915050565b60006110703261149a565b905061107c8183611c40565b5050565b61109b83838360405180602001604052806000815250611820565b505050565b60006110aa610f23565b8210611101576040517f08c379a000000000000000000000000000000000000000000000000000000000815260040180806020018281038252602c8152602001806133e4602c913960400191505060405180910390fd5b6007828154811061110e57fe5b90600052602060002001549050919050565b6000806001600084815260200190815260200160002060009054906101000a900473ffffffffffffffffffffffffffffffffffffffff169050600073ffffffffffffffffffffffffffffffffffffffff168173ffffffffffffffffffffffffffffffffffffffff1614156111df576040517f08c379a00000000000000000000000000000000000000000000000000000000081526004018080602001828103825260298152602001806132e86029913960400191505060405180910390fd5b80915050919050565b6060600b8054600181600116156101000203166002900480601f0160208091040260200160405190810160405280929190818152602001828054600181600116156101000203166002900480156112805780601f1061125557610100808354040283529160200191611280565b820191906000526020600020905b81548152906001019060200180831161126357829003601f168201915b5050505050905090565b60008073ffffffffffffffffffffffffffffffffffffffff168273ffffffffffffffffffffffffffffffffffffffff161415611311576040517f08c379a000000000000000000000000000000000000000000000000000000000815260040180806020018281038252602a8152602001806132be602a913960400191505060405180910390fd5b611358600360008473ffffffffffffffffffffffffffffffffffffffff1673ffffffffffffffffffffffffffffffffffffffff168152602001908152602001600020611cca565b9050919050565b611367611567565b6113d9576040517f08c379a00000000000000000000000000000000000000000000000000000000081526004018080602001828103825260208152602001807f4f776e61626c653a2063616c6c6572206973206e6f7420746865206f776e657281525060200191505060405180910390fd5b600073ffffffffffffffffffffffffffffffffffffffff16600d60009054906101000a900473ffffffffffffffffffffffffffffffffffffffff1673ffffffffffffffffffffffffffffffffffffffff167f8be0079c531659141344cd1fd0a4f28419497f9722a3daafe3b4186f6b6457e060405160405180910390a36000600d60006101000a81548173ffffffffffffffffffffffffffffffffffffffff021916908373ffffffffffffffffffffffffffffffffffffffff160217905550565b60006114a4611567565b611516576040517f08c379a00000000000000000000000000000000000000000000000000000000081526004018080602001828103825260208152602001807f4f776e61626c653a2063616c6c6572206973206e6f7420746865206f776e657281525060200191505060405180910390fd5b6000611520611cd8565b905061152c8382611cf5565b611534611d16565b80915050919050565b6000600d60009054906101000a900473ffffffffffffffffffffffffffffffffffffffff16905090565b6000600d60009054906101000a900473ffffffffffffffffffffffffffffffffffffffff1673ffffffffffffffffffffffffffffffffffffffff166115aa611b20565b73ffffffffffffffffffffffffffffffffffffffff1614905090565b6060600a8054600181600116156101000203166002900480601f01602080910402602001604051908101604052809291908181526020018280546001816001161561010002031660029004801561165e5780601f106116335761010080835404028352916020019161165e565b820191906000526020600020905b81548152906001019060200180831161164157829003601f168201915b5050505050905090565b611670611b20565b73ffffffffffffffffffffffffffffffffffffffff168273ffffffffffffffffffffffffffffffffffffffff161415611711576040517f08c379a00000000000000000000000000000000000000000000000000000000081526004018080602001828103825260198152602001807f4552433732313a20617070726f766520746f2063616c6c65720000000000000081525060200191505060405180910390fd5b806004600061171e611b20565b73ffffffffffffffffffffffffffffffffffffffff1673ffffffffffffffffffffffffffffffffffffffff16815260200190815260200160002060008473ffffffffffffffffffffffffffffffffffffffff1673ffffffffffffffffffffffffffffffffffffffff16815260200190815260200160002060006101000a81548160ff0219169083151502179055508173ffffffffffffffffffffffffffffffffffffffff166117cb611b20565b73ffffffffffffffffffffffffffffffffffffffff167f17307eab39ab6107e8899845ad3d59bd9653f200f220920489ca2b5937696c3183604051808215151515815260200191505060405180910390a35050565b61183161182b611b20565b83611b28565b611886576040517f08c379a00000000000000000000000000000000000000000000000000000000081526004018080602001828103825260318152602001806133b36031913960400191505060405180910390fd5b61189284848484611d2a565b50505050565b60606118b36118a56118e0565b6118ae84611d9c565b611ec9565b9050919050565b601060009054906101000a900473ffffffffffffffffffffffffffffffffffffffff1681565b606060405180602001604052806000815250905090565b600080600e60009054906101000a900473ffffffffffffffffffffffffffffffffffffffff1690508273ffffffffffffffffffffffffffffffffffffffff168173ffffffffffffffffffffffffffffffffffffffff1663c4552791866040518263ffffffff1660e01b8152600401808273ffffffffffffffffffffffffffffffffffffffff1673ffffffffffffffffffffffffffffffffffffffff16815260200191505060206040518083038186803b1580156119b357600080fd5b505afa1580156119c7573d6000803e3d6000fd5b505050506040513d60208110156119dd57600080fd5b810190808051906020019092919050505073ffffffffffffffffffffffffffffffffffffffff161415611a14576001915050611a22565b611a1e8484611f0d565b9150505b92915050565b611a30611567565b611aa2576040517f08c379a00000000000000000000000000000000000000000000000000000000081526004018080602001828103825260208152602001807f4f776e61626c653a2063616c6c6572206973206e6f7420746865206f776e657281525060200191505060405180910390fd5b611aab81611fa1565b50565b6000806001600084815260200190815260200160002060009054906101000a900473ffffffffffffffffffffffffffffffffffffffff169050600073ffffffffffffffffffffffffffffffffffffffff168173ffffffffffffffffffffffffffffffffffffffff161415915050919050565b600033905090565b6000611b3382611aae565b611b88576040517f08c379a000000000000000000000000000000000000000000000000000000000815260040180806020018281038252602c81526020018061325a602c913960400191505060405180910390fd5b6000611b9383611120565b90508073ffffffffffffffffffffffffffffffffffffffff168473ffffffffffffffffffffffffffffffffffffffff161480611c0257508373ffffffffffffffffffffffffffffffffffffffff16611bea84610ca1565b73ffffffffffffffffffffffffffffffffffffffff16145b80611c135750611c1281856118f7565b5b91505092915050565b611c278383836120e7565b611c318382612342565b611c3b82826124e0565b505050565b611c4982611aae565b611c9e576040517f08c379a000000000000000000000000000000000000000000000000000000000815260040180806020018281038252602c81526020018061333d602c913960400191505060405180910390fd5b80600c60008481526020019081526020016000209080519060200190611cc59291906130e1565b505050565b600081600001549050919050565b6000611cf06001600f546125a790919063ffffffff16565b905090565b611cff828261262f565b611d0982826124e0565b611d1281612847565b5050565b600f60008154809291906001019190505550565b611d35848484611c1c565b611d4184848484612893565b611d96576040517f08c379a00000000000000000000000000000000000000000000000000000000081526004018080602001828103825260328152602001806131de6032913960400191505060405180910390fd5b50505050565b60606000821415611de4576040518060400160405280600181526020017f30000000000000000000000000000000000000000000000000000000000000008152509050611ec4565b600082905060005b60008214611e0e578080600101915050600a8281611e0657fe5b049150611dec565b6060816040519080825280601f01601f191660200182016040528015611e435781602001600182028038833980820191505090505b50905060006001830390505b60008614611ebc57600a8681611e6157fe5b0660300160f81b82828060019003935081518110611e7b57fe5b60200101907effffffffffffffffffffffffffffffffffffffffffffffffffffffffffffff1916908160001a905350600a8681611eb457fe5b049550611e4f565b819450505050505b919050565b6060611f058383604051806020016040528060008152506040518060200160405280600081525060405180602001604052806000815250612bcf565b905092915050565b6000600460008473ffffffffffffffffffffffffffffffffffffffff1673ffffffffffffffffffffffffffffffffffffffff16815260200190815260200160002060008373ffffffffffffffffffffffffffffffffffffffff1673ffffffffffffffffffffffffffffffffffffffff16815260200190815260200160002060009054906101000a900460ff16905092915050565b600073ffffffffffffffffffffffffffffffffffffffff168173ffffffffffffffffffffffffffffffffffffffff161415612027576040517f08c379a00000000000000000000000000000000000000000000000000000000081526004018080602001828103825260268152602001806132106026913960400191505060405180910390fd5b8073ffffffffffffffffffffffffffffffffffffffff16600d60009054906101000a900473ffffffffffffffffffffffffffffffffffffffff1673ffffffffffffffffffffffffffffffffffffffff167f8be0079c531659141344cd1fd0a4f28419497f9722a3daafe3b4186f6b6457e060405160405180910390a380600d60006101000a81548173ffffffffffffffffffffffffffffffffffffffff021916908373ffffffffffffffffffffffffffffffffffffffff16021790555050565b8273ffffffffffffffffffffffffffffffffffffffff1661210782611120565b73ffffffffffffffffffffffffffffffffffffffff1614612173576040517f08c379a00000000000000000000000000000000000000000000000000000000081526004018080602001828103825260298152602001806133696029913960400191505060405180910390fd5b600073ffffffffffffffffffffffffffffffffffffffff168273ffffffffffffffffffffffffffffffffffffffff1614156121f9576040517f08c379a00000000000000000000000000000000000000000000000000000000081526004018080602001828103825260248152602001806132366024913960400191505060405180910390fd5b61220281612e95565b612249600360008573ffffffffffffffffffffffffffffffffffffffff1673ffffffffffffffffffffffffffffffffffffffff168152602001908152602001600020612f53565b612290600360008473ffffffffffffffffffffffffffffffffffffffff1673ffffffffffffffffffffffffffffffffffffffff168152602001908152602001600020612f76565b816001600083815260200190815260200160002060006101000a81548173ffffffffffffffffffffffffffffffffffffffff021916908373ffffffffffffffffffffffffffffffffffffffff160217905550808273ffffffffffffffffffffffffffffffffffffffff168473ffffffffffffffffffffffffffffffffffffffff167fddf252ad1be2c89b69c2b068fc378daa952ba7f163c4a11628f55a4df523b3ef60405160405180910390a4505050565b600061239a6001600560008673ffffffffffffffffffffffffffffffffffffffff1673ffffffffffffffffffffffffffffffffffffffff16815260200190815260200160002080549050612f8c90919063ffffffff16565b9050600060066000848152602001908152602001600020549050818114612487576000600560008673ffffffffffffffffffffffffffffffffffffffff1673ffffffffffffffffffffffffffffffffffffffff168152602001908152602001600020838154811061240757fe5b9060005260206000200154905080600560008773ffffffffffffffffffffffffffffffffffffffff1673ffffffffffffffffffffffffffffffffffffffff168152602001908152602001600020838154811061245f57fe5b9060005260206000200181905550816006600083815260200190815260200160002081905550505b600560008573ffffffffffffffffffffffffffffffffffffffff1673ffffffffffffffffffffffffffffffffffffffff1681526020019081526020016000208054809190600190036124d99190613161565b5050505050565b600560008373ffffffffffffffffffffffffffffffffffffffff1673ffffffffffffffffffffffffffffffffffffffff168152602001908152602001600020805490506006600083815260200190815260200160002081905550600560008373ffffffffffffffffffffffffffffffffffffffff1673ffffffffffffffffffffffffffffffffffffffff1681526020019081526020016000208190806001815401808255809150509060018203906000526020600020016000909192909190915055505050565b600080828401905083811015612625576040517f08c379a000000000000000000000000000000000000000000000000000000000815260040180806020018281038252601b8152602001807f536166654d6174683a206164646974696f6e206f766572666c6f77000000000081525060200191505060405180910390fd5b8091505092915050565b600073ffffffffffffffffffffffffffffffffffffffff168273ffffffffffffffffffffffffffffffffffffffff1614156126d2576040517f08c379a00000000000000000000000000000000000000000000000000000000081526004018080602001828103825260208152602001807f4552433732313a206d696e7420746f20746865207a65726f206164647265737381525060200191505060405180910390fd5b6126db81611aae565b1561274e576040517f08c379a000000000000000000000000000000000000000000000000000000000815260040180806020018281038252601c8152602001807f4552433732313a20746f6b656e20616c7265616479206d696e7465640000000081525060200191505060405180910390fd5b816001600083815260200190815260200160002060006101000a81548173ffffffffffffffffffffffffffffffffffffffff021916908373ffffffffffffffffffffffffffffffffffffffff1602179055506127e7600360008473ffffffffffffffffffffffffffffffffffffffff1673ffffffffffffffffffffffffffffffffffffffff168152602001908152602001600020612f76565b808273ffffffffffffffffffffffffffffffffffffffff16600073ffffffffffffffffffffffffffffffffffffffff167fddf252ad1be2c89b69c2b068fc378daa952ba7f163c4a11628f55a4df523b3ef60405160405180910390a45050565b6007805490506008600083815260200190815260200160002081905550600781908060018154018082558091505090600182039060005260206000200160009091929091909150555050565b60006128b48473ffffffffffffffffffffffffffffffffffffffff16612fd6565b6128c15760019050612bc7565b600060608573ffffffffffffffffffffffffffffffffffffffff168673ffffffffffffffffffffffffffffffffffffffff1663150b7a02905060e01b612905611b20565b898888604051602401808573ffffffffffffffffffffffffffffffffffffffff1673ffffffffffffffffffffffffffffffffffffffff1681526020018473ffffffffffffffffffffffffffffffffffffffff1673ffffffffffffffffffffffffffffffffffffffff16815260200183815260200180602001828103825283818151815260200191508051906020019080838360005b838110156129b557808201518184015260208101905061299a565b50505050905090810190601f1680156129e25780820380516001836020036101000a031916815260200191505b5095505050505050604051602081830303815290604052907bffffffffffffffffffffffffffffffffffffffffffffffffffffffff19166020820180517bffffffffffffffffffffffffffffffffffffffffffffffffffffffff83818316178352505050506040518082805190602001908083835b60208310612a7a5780518252602082019150602081019050602083039250612a57565b6001836020036101000a0380198251168184511680821785525050505050509050019150506000604051808303816000865af19150503d8060008114612adc576040519150601f19603f3d011682016040523d82523d6000602084013e612ae1565b606091505b509150915081612b4f57600081511115612afe5780518082602001fd5b6040517f08c379a00000000000000000000000000000000000000000000000000000000081526004018080602001828103825260328152602001806131de6032913960400191505060405180910390fd5b6000818060200190516020811015612b6657600080fd5b8101908080519060200190929190505050905063150b7a0260e01b7bffffffffffffffffffffffffffffffffffffffffffffffffffffffff1916817bffffffffffffffffffffffffffffffffffffffffffffffffffffffff19161493505050505b949350505050565b6060808690506060869050606086905060608690506060869050606081518351855187518951010101016040519080825280601f01601f191660200182016040528015612c2b5781602001600182028038833980820191505090505b5090506060819050600080905060008090505b8851811015612cac57888181518110612c5357fe5b602001015160f81c60f81b838380600101945081518110612c7057fe5b60200101907effffffffffffffffffffffffffffffffffffffffffffffffffffffffffffff1916908160001a9053508080600101915050612c3e565b5060008090505b8751811015612d2157878181518110612cc857fe5b602001015160f81c60f81b838380600101945081518110612ce557fe5b60200101907effffffffffffffffffffffffffffffffffffffffffffffffffffffffffffff1916908160001a9053508080600101915050612cb3565b5060008090505b8651811015612d9657868181518110612d3d57fe5b602001015160f81c60f81b838380600101945081518110612d5a57fe5b60200101907effffffffffffffffffffffffffffffffffffffffffffffffffffffffffffff1916908160001a9053508080600101915050612d28565b5060008090505b8551811015612e0b57858181518110612db257fe5b602001015160f81c60f81b838380600101945081518110612dcf57fe5b60200101907effffffffffffffffffffffffffffffffffffffffffffffffffffffffffffff1916908160001a9053508080600101915050612d9d565b5060008090505b8451811015612e8057848181518110612e2757fe5b602001015160f81c60f81b838380600101945081518110612e4457fe5b60200101907effffffffffffffffffffffffffffffffffffffffffffffffffffffffffffff1916908160001a9053508080600101915050612e12565b50819850505050505050505095945050505050565b600073ffffffffffffffffffffffffffffffffffffffff166002600083815260200190815260200160002060009054906101000a900473ffffffffffffffffffffffffffffffffffffffff1673ffffffffffffffffffffffffffffffffffffffff1614612f505760006002600083815260200190815260200160002060006101000a81548173ffffffffffffffffffffffffffffffffffffffff021916908373ffffffffffffffffffffffffffffffffffffffff1602179055505b50565b612f6b60018260000154612f8c90919063ffffffff16565b816000018190555050565b6001816000016000828254019250508190555050565b6000612fce83836040518060400160405280601e81526020017f536166654d6174683a207375627472616374696f6e206f766572666c6f770000815250613021565b905092915050565b60008060007fc5d2460186f7233c927e7db2dcc703c0e500b653ca82273b7bfad8045d85a47060001b9050833f915080821415801561301857506000801b8214155b92505050919050565b60008383111582906130ce576040517f08c379a00000000000000000000000000000000000000000000000000000000081526004018080602001828103825283818151815260200191508051906020019080838360005b83811015613093578082015181840152602081019050613078565b50505050905090810190601f1680156130c05780820380516001836020036101000a031916815260200191505b509250505060405180910390fd5b5060008385039050809150509392505050565b828054600181600116156101000203166002900490600052602060002090601f016020900481019282601f1061312257805160ff1916838001178555613150565b82800160010185558215613150579182015b8281111561314f578251825591602001919060010190613134565b5b50905061315d919061318d565b5090565b81548183558181111561318857818360005260206000209182019101613187919061318d565b5b505050565b6131af91905b808211156131ab576000816000905550600101613193565b5090565b9056fe455243373231456e756d657261626c653a206f776e657220696e646578206f7574206f6620626f756e64734552433732313a207472616e7366657220746f206e6f6e20455243373231526563656976657220696d706c656d656e7465724f776e61626c653a206e6577206f776e657220697320746865207a65726f20616464726573734552433732313a207472616e7366657220746f20746865207a65726f20616464726573734552433732313a206f70657261746f7220717565727920666f72206e6f6e6578697374656e7420746f6b656e4552433732313a20617070726f76652063616c6c6572206973206e6f74206f776e6572206e6f7220617070726f76656420666f7220616c6c4552433732313a2062616c616e636520717565727920666f7220746865207a65726f20616464726573734552433732313a206f776e657220717565727920666f72206e6f6e6578697374656e7420746f6b656e4552433732313a20617070726f76656420717565727920666f72206e6f6e6578697374656e7420746f6b656e4552433732314d657461646174613a2055524920736574206f66206e6f6e6578697374656e7420746f6b656e4552433732313a207472616e73666572206f6620746f6b656e2074686174206973206e6f74206f776e4552433732313a20617070726f76616c20746f2063757272656e74206f776e65724552433732313a207472616e736665722063616c6c6572206973206e6f74206f776e6572206e6f7220617070726f766564455243373231456e756d657261626c653a20676c6f62616c20696e646578206f7574206f6620626f756e6473a265627a7a723158207ce9f51dc12566bed6cd371f1699241ad480e033caae8370e0a7a305f779750564736f6c634300051100324f776e61626c653a206e6577206f776e657220697320746865207a65726f2061646472657373a265627a7a7231582097a6c5ca34797406999a54774874d5723fef46831e21b07aae3365f7c53accb964736f6c63430005110032",
  "source": "pragma solidity ^0.5.8;\n\nimport \"./ERC721Tradable.sol\";\nimport \"openzeppelin-solidity/contracts/ownership/Ownable.sol\";\n\n/**\n * @title BullionCollectible\n * \n */\ncontract BullionCollectible is ERC721Tradable {\n    string private contractLink;\n\n    constructor(address _proxyRegistryAddress)\n        public\n        ERC721Tradable(\n            \"BullionCollectibleDigitalArt\",\n            \"BDART\",\n            _proxyRegistryAddress\n        )\n    {}\n\n    function setContractUri(string memory tokenUri) public  {\n        contractLink = tokenUri;\n    }\n\n    function contractURI() public view returns (string memory) {\n        return contractLink;\n    }\n\n    function createCollectible(string memory tokenURI) public onlyOwner {\n        // uint256 newItemId = tokenCounter;\n        // _safeMint(msg.sender, newItemId);\n        // setContractUri(tokenURI);\n        uint256 newItemId = mintTo(tx.origin);\n        _setTokenURI(newItemId, tokenURI);\n    }\n}\n\ncontract BullionItem is ERC721Tradable {\n    address public proxyRegistryAddress;\n\n    constructor(address _proxyRegistryAddress, string memory name, string memory tokenSymbol)\n        public\n        ERC721Tradable(\n            name,\n            tokenSymbol,\n            _proxyRegistryAddress\n        )\n    {\n        proxyRegistryAddress = _proxyRegistryAddress;\n    }\n\n    function createCollectible(string memory _tokenURI) public {\n        uint256 newItemId = mintTo(tx.origin);\n        _setTokenURI(newItemId, _tokenURI);\n    }\n}\n\ncontract BullionIssue is Ownable{\n    address private proxyRegistryAddress;\n    BullionItem public item;\n\n    constructor(address _proxyRegistryAddress) public {\n        proxyRegistryAddress = _proxyRegistryAddress;\n\n    }\n\n    function createToken (string memory _name, string memory _tokenSymbol) public onlyOwner {\n        item = new BullionItem(proxyRegistryAddress, _name, _tokenSymbol);\n\n    }\n\n    function getSymbol () public view returns(string memory) {\n        return item.symbol();\n    }\n\n    function getName () public view returns(string memory) {\n        return item.name();\n    }\n\n}\n",
  "sourcePath": "/home/k0d3d/Projects/bullion-js/contracts/Bullion.sol",
  "compiler": {
    "name": "solc",
    "version": "0.5.17+commit.d19bba13.Emscripten.clang"
  },
  "schemaVersion": "3.3.0",
  "updatedAt": "2021-04-11T21:40:28.560Z",
  "devdoc": {
    "methods": {
      "isOwner()": {
        "details": "Returns true if the caller is the current owner."
      },
      "owner()": {
        "details": "Returns the address of the current owner."
      },
      "renounceOwnership()": {
        "details": "Leaves the contract without owner. It will not be possible to call `onlyOwner` functions anymore. Can only be called by the current owner.     * NOTE: Renouncing ownership will leave the contract without an owner, thereby removing any functionality that is only available to the owner."
      },
      "transferOwnership(address)": {
        "details": "Transfers ownership of the contract to a new account (`newOwner`). Can only be called by the current owner."
      }
    }
  },
  "userdoc": {
    "methods": {}
  }
}